{
  "_format": "hh-sol-artifact-1",
  "contractName": "NFTCollectible",
  "sourceName": "contracts/NFTCollectible.sol",
  "abi": [
    {
      "inputs": [
        {
          "internalType": "string",
          "name": "baseURI",
          "type": "string"
        }
      ],
      "stateMutability": "nonpayable",
      "type": "constructor"
    },
    {
      "anonymous": false,
      "inputs": [
        {
          "indexed": true,
          "internalType": "address",
          "name": "owner",
          "type": "address"
        },
        {
          "indexed": true,
          "internalType": "address",
          "name": "approved",
          "type": "address"
        },
        {
          "indexed": true,
          "internalType": "uint256",
          "name": "tokenId",
          "type": "uint256"
        }
      ],
      "name": "Approval",
      "type": "event"
    },
    {
      "anonymous": false,
      "inputs": [
        {
          "indexed": true,
          "internalType": "address",
          "name": "owner",
          "type": "address"
        },
        {
          "indexed": true,
          "internalType": "address",
          "name": "operator",
          "type": "address"
        },
        {
          "indexed": false,
          "internalType": "bool",
          "name": "approved",
          "type": "bool"
        }
      ],
      "name": "ApprovalForAll",
      "type": "event"
    },
    {
      "anonymous": false,
      "inputs": [
        {
          "indexed": false,
          "internalType": "address",
          "name": "sender",
          "type": "address"
        },
        {
          "indexed": false,
          "internalType": "uint256",
          "name": "tokenId",
          "type": "uint256"
        }
      ],
      "name": "NewNFTMinted",
      "type": "event"
    },
    {
      "anonymous": false,
      "inputs": [
        {
          "indexed": true,
          "internalType": "address",
          "name": "previousOwner",
          "type": "address"
        },
        {
          "indexed": true,
          "internalType": "address",
          "name": "newOwner",
          "type": "address"
        }
      ],
      "name": "OwnershipTransferred",
      "type": "event"
    },
    {
      "anonymous": false,
      "inputs": [
        {
          "indexed": true,
          "internalType": "address",
          "name": "from",
          "type": "address"
        },
        {
          "indexed": true,
          "internalType": "address",
          "name": "to",
          "type": "address"
        },
        {
          "indexed": true,
          "internalType": "uint256",
          "name": "tokenId",
          "type": "uint256"
        }
      ],
      "name": "Transfer",
      "type": "event"
    },
    {
      "inputs": [],
      "name": "MAX_PER_MINT",
      "outputs": [
        {
          "internalType": "uint256",
          "name": "",
          "type": "uint256"
        }
      ],
      "stateMutability": "view",
      "type": "function"
    },
    {
      "inputs": [],
      "name": "MAX_SUPPLY",
      "outputs": [
        {
          "internalType": "uint256",
          "name": "",
          "type": "uint256"
        }
      ],
      "stateMutability": "view",
      "type": "function"
    },
    {
      "inputs": [],
      "name": "PRICE",
      "outputs": [
        {
          "internalType": "uint256",
          "name": "",
          "type": "uint256"
        }
      ],
      "stateMutability": "view",
      "type": "function"
    },
    {
      "inputs": [
        {
          "internalType": "address",
          "name": "to",
          "type": "address"
        },
        {
          "internalType": "uint256",
          "name": "tokenId",
          "type": "uint256"
        }
      ],
      "name": "approve",
      "outputs": [],
      "stateMutability": "nonpayable",
      "type": "function"
    },
    {
      "inputs": [
        {
          "internalType": "address",
          "name": "owner",
          "type": "address"
        }
      ],
      "name": "balanceOf",
      "outputs": [
        {
          "internalType": "uint256",
          "name": "",
          "type": "uint256"
        }
      ],
      "stateMutability": "view",
      "type": "function"
    },
    {
      "inputs": [],
      "name": "baseTokenURI",
      "outputs": [
        {
          "internalType": "string",
          "name": "",
          "type": "string"
        }
      ],
      "stateMutability": "view",
      "type": "function"
    },
    {
      "inputs": [
        {
          "internalType": "uint256",
          "name": "tokenId",
          "type": "uint256"
        }
      ],
      "name": "getApproved",
      "outputs": [
        {
          "internalType": "address",
          "name": "",
          "type": "address"
        }
      ],
      "stateMutability": "view",
      "type": "function"
    },
    {
      "inputs": [
        {
          "internalType": "address",
          "name": "owner",
          "type": "address"
        },
        {
          "internalType": "address",
          "name": "operator",
          "type": "address"
        }
      ],
      "name": "isApprovedForAll",
      "outputs": [
        {
          "internalType": "bool",
          "name": "",
          "type": "bool"
        }
      ],
      "stateMutability": "view",
      "type": "function"
    },
    {
      "inputs": [
        {
          "internalType": "uint256",
          "name": "_count",
          "type": "uint256"
        }
      ],
      "name": "mintNFTs",
      "outputs": [],
      "stateMutability": "payable",
      "type": "function"
    },
    {
      "inputs": [],
      "name": "name",
      "outputs": [
        {
          "internalType": "string",
          "name": "",
          "type": "string"
        }
      ],
      "stateMutability": "view",
      "type": "function"
    },
    {
      "inputs": [],
      "name": "owner",
      "outputs": [
        {
          "internalType": "address",
          "name": "",
          "type": "address"
        }
      ],
      "stateMutability": "view",
      "type": "function"
    },
    {
      "inputs": [
        {
          "internalType": "uint256",
          "name": "tokenId",
          "type": "uint256"
        }
      ],
      "name": "ownerOf",
      "outputs": [
        {
          "internalType": "address",
          "name": "",
          "type": "address"
        }
      ],
      "stateMutability": "view",
      "type": "function"
    },
    {
      "inputs": [],
      "name": "renounceOwnership",
      "outputs": [],
      "stateMutability": "nonpayable",
      "type": "function"
    },
    {
      "inputs": [],
      "name": "reserveNFTs",
      "outputs": [],
      "stateMutability": "nonpayable",
      "type": "function"
    },
    {
      "inputs": [
        {
          "internalType": "address",
          "name": "from",
          "type": "address"
        },
        {
          "internalType": "address",
          "name": "to",
          "type": "address"
        },
        {
          "internalType": "uint256",
          "name": "tokenId",
          "type": "uint256"
        }
      ],
      "name": "safeTransferFrom",
      "outputs": [],
      "stateMutability": "nonpayable",
      "type": "function"
    },
    {
      "inputs": [
        {
          "internalType": "address",
          "name": "from",
          "type": "address"
        },
        {
          "internalType": "address",
          "name": "to",
          "type": "address"
        },
        {
          "internalType": "uint256",
          "name": "tokenId",
          "type": "uint256"
        },
        {
          "internalType": "bytes",
          "name": "_data",
          "type": "bytes"
        }
      ],
      "name": "safeTransferFrom",
      "outputs": [],
      "stateMutability": "nonpayable",
      "type": "function"
    },
    {
      "inputs": [
        {
          "internalType": "address",
          "name": "operator",
          "type": "address"
        },
        {
          "internalType": "bool",
          "name": "approved",
          "type": "bool"
        }
      ],
      "name": "setApprovalForAll",
      "outputs": [],
      "stateMutability": "nonpayable",
      "type": "function"
    },
    {
      "inputs": [
        {
          "internalType": "string",
          "name": "_baseTokenURI",
          "type": "string"
        }
      ],
      "name": "setBaseURI",
      "outputs": [],
      "stateMutability": "nonpayable",
      "type": "function"
    },
    {
      "inputs": [
        {
          "internalType": "bytes4",
          "name": "interfaceId",
          "type": "bytes4"
        }
      ],
      "name": "supportsInterface",
      "outputs": [
        {
          "internalType": "bool",
          "name": "",
          "type": "bool"
        }
      ],
      "stateMutability": "view",
      "type": "function"
    },
    {
      "inputs": [],
      "name": "symbol",
      "outputs": [
        {
          "internalType": "string",
          "name": "",
          "type": "string"
        }
      ],
      "stateMutability": "view",
      "type": "function"
    },
    {
      "inputs": [
        {
          "internalType": "uint256",
          "name": "index",
          "type": "uint256"
        }
      ],
      "name": "tokenByIndex",
      "outputs": [
        {
          "internalType": "uint256",
          "name": "",
          "type": "uint256"
        }
      ],
      "stateMutability": "view",
      "type": "function"
    },
    {
      "inputs": [
        {
          "internalType": "address",
          "name": "owner",
          "type": "address"
        },
        {
          "internalType": "uint256",
          "name": "index",
          "type": "uint256"
        }
      ],
      "name": "tokenOfOwnerByIndex",
      "outputs": [
        {
          "internalType": "uint256",
          "name": "",
          "type": "uint256"
        }
      ],
      "stateMutability": "view",
      "type": "function"
    },
    {
      "inputs": [
        {
          "internalType": "uint256",
          "name": "tokenId",
          "type": "uint256"
        }
      ],
      "name": "tokenURI",
      "outputs": [
        {
          "internalType": "string",
          "name": "",
          "type": "string"
        }
      ],
      "stateMutability": "view",
      "type": "function"
    },
    {
      "inputs": [
        {
          "internalType": "address",
          "name": "_owner",
          "type": "address"
        }
      ],
      "name": "tokensOfOwner",
      "outputs": [
        {
          "internalType": "uint256[]",
          "name": "",
          "type": "uint256[]"
        }
      ],
      "stateMutability": "view",
      "type": "function"
    },
    {
      "inputs": [],
      "name": "totalSupply",
      "outputs": [
        {
          "internalType": "uint256",
          "name": "",
          "type": "uint256"
        }
      ],
      "stateMutability": "view",
      "type": "function"
    },
    {
      "inputs": [
        {
          "internalType": "address",
          "name": "from",
          "type": "address"
        },
        {
          "internalType": "address",
          "name": "to",
          "type": "address"
        },
        {
          "internalType": "uint256",
          "name": "tokenId",
          "type": "uint256"
        }
      ],
      "name": "transferFrom",
      "outputs": [],
      "stateMutability": "nonpayable",
      "type": "function"
    },
    {
      "inputs": [
        {
          "internalType": "address",
          "name": "newOwner",
          "type": "address"
        }
      ],
      "name": "transferOwnership",
      "outputs": [],
      "stateMutability": "nonpayable",
      "type": "function"
    },
    {
      "inputs": [],
      "name": "withdraw",
      "outputs": [],
      "stateMutability": "payable",
      "type": "function"
    }
  ],
  "bytecode": "0x60806040523480156200001157600080fd5b5060405162004871380380620048718339818101604052810190620000379190620003d4565b6040518060400160405280601081526020017f53637261707079537175697272656c73000000000000000000000000000000008152506040518060400160405280600281526020017f53530000000000000000000000000000000000000000000000000000000000008152508160009080519060200190620000bb929190620002b2565b508060019080519060200190620000d4929190620002b2565b505050620000f7620000eb6200010f60201b60201c565b6200011760201b60201c565b6200010881620001dd60201b60201c565b50620005bf565b600033905090565b6000600a60009054906101000a900473ffffffffffffffffffffffffffffffffffffffff16905081600a60006101000a81548173ffffffffffffffffffffffffffffffffffffffff021916908373ffffffffffffffffffffffffffffffffffffffff1602179055508173ffffffffffffffffffffffffffffffffffffffff168173ffffffffffffffffffffffffffffffffffffffff167f8be0079c531659141344cd1fd0a4f28419497f9722a3daafe3b4186f6b6457e060405160405180910390a35050565b620001ed6200010f60201b60201c565b73ffffffffffffffffffffffffffffffffffffffff16620002136200028860201b60201c565b73ffffffffffffffffffffffffffffffffffffffff16146200026c576040517f08c379a000000000000000000000000000000000000000000000000000000000815260040162000263906200045b565b60405180910390fd5b80600c908051906020019062000284929190620002b2565b5050565b6000600a60009054906101000a900473ffffffffffffffffffffffffffffffffffffffff16905090565b828054620002c0906200052b565b90600052602060002090601f016020900481019282620002e4576000855562000330565b82601f10620002ff57805160ff191683800117855562000330565b8280016001018555821562000330579182015b828111156200032f57825182559160200191906001019062000312565b5b5090506200033f919062000343565b5090565b5b808211156200035e57600081600090555060010162000344565b5090565b6000620003796200037384620004b1565b6200047d565b9050828152602081018484840111156200039257600080fd5b6200039f848285620004f5565b509392505050565b600082601f830112620003b957600080fd5b8151620003cb84826020860162000362565b91505092915050565b600060208284031215620003e757600080fd5b600082015167ffffffffffffffff8111156200040257600080fd5b6200041084828501620003a7565b91505092915050565b600062000428602083620004e4565b91507f4f776e61626c653a2063616c6c6572206973206e6f7420746865206f776e65726000830152602082019050919050565b60006020820190508181036000830152620004768162000419565b9050919050565b6000604051905081810181811067ffffffffffffffff82111715620004a757620004a662000590565b5b8060405250919050565b600067ffffffffffffffff821115620004cf57620004ce62000590565b5b601f19601f8301169050602081019050919050565b600082825260208201905092915050565b60005b8381101562000515578082015181840152602081019050620004f8565b8381111562000525576000848401525b50505050565b600060028204905060018216806200054457607f821691505b602082108114156200055b576200055a62000561565b5b50919050565b7f4e487b7100000000000000000000000000000000000000000000000000000000600052602260045260246000fd5b7f4e487b7100000000000000000000000000000000000000000000000000000000600052604160045260246000fd5b6142a280620005cf6000396000f3fe6080604052600436106101b75760003560e01c806355f804b3116100ec57806395d89b411161008a578063c87b56dd11610064578063c87b56dd146105de578063d547cfb71461061b578063e985e9c514610646578063f2fde38b14610683576101b7565b806395d89b4114610561578063a22cb4651461058c578063b88d4fde146105b5576101b7565b8063715018a6116100c6578063715018a6146104b75780638462151c146104ce5780638d859f3e1461050b5780638da5cb5b14610536576101b7565b806355f804b3146104145780636352211e1461043d57806370a082311461047a576101b7565b806323b872dd116101595780633b4b1381116101335780633b4b1381146103885780633ccfd60b146103a457806342842e0e146103ae5780634f6ccce7146103d7576101b7565b806323b872dd146102f75780632f745c591461032057806332cb6b0c1461035d576101b7565b8063095ea7b311610195578063095ea7b31461026157806309d42b301461028a578063144100c7146102b557806318160ddd146102cc576101b7565b806301ffc9a7146101bc57806306fdde03146101f9578063081812fc14610224575b600080fd5b3480156101c857600080fd5b506101e360048036038101906101de9190612e83565b6106ac565b6040516101f091906139f9565b60405180910390f35b34801561020557600080fd5b5061020e610726565b60405161021b9190613a14565b60405180910390f35b34801561023057600080fd5b5061024b60048036038101906102469190612f16565b6107b8565b6040516102589190613947565b60405180910390f35b34801561026d57600080fd5b5061028860048036038101906102839190612e47565b61083d565b005b34801561029657600080fd5b5061029f610955565b6040516102ac9190613d74565b60405180910390f35b3480156102c157600080fd5b506102ca61095a565b005b3480156102d857600080fd5b506102e1610a65565b6040516102ee9190613d74565b60405180910390f35b34801561030357600080fd5b5061031e60048036038101906103199190612d41565b610a72565b005b34801561032c57600080fd5b5061034760048036038101906103429190612e47565b610ad2565b6040516103549190613d74565b60405180910390f35b34801561036957600080fd5b50610372610b77565b60405161037f9190613d74565b60405180910390f35b6103a2600480360381019061039d9190612f16565b610b7c565b005b6103ac610cb7565b005b3480156103ba57600080fd5b506103d560048036038101906103d09190612d41565b610e2b565b005b3480156103e357600080fd5b506103fe60048036038101906103f99190612f16565b610e4b565b60405161040b9190613d74565b60405180910390f35b34801561042057600080fd5b5061043b60048036038101906104369190612ed5565b610ee2565b005b34801561044957600080fd5b50610464600480360381019061045f9190612f16565b610f78565b6040516104719190613947565b60405180910390f35b34801561048657600080fd5b506104a1600480360381019061049c9190612cdc565b61102a565b6040516104ae9190613d74565b60405180910390f35b3480156104c357600080fd5b506104cc6110e2565b005b3480156104da57600080fd5b506104f560048036038101906104f09190612cdc565b61116a565b60405161050291906139d7565b60405180910390f35b34801561051757600080fd5b50610520611264565b60405161052d9190613d74565b60405180910390f35b34801561054257600080fd5b5061054b61126f565b6040516105589190613947565b60405180910390f35b34801561056d57600080fd5b50610576611299565b6040516105839190613a14565b60405180910390f35b34801561059857600080fd5b506105b360048036038101906105ae9190612e0b565b61132b565b005b3480156105c157600080fd5b506105dc60048036038101906105d79190612d90565b611341565b005b3480156105ea57600080fd5b5061060560048036038101906106009190612f16565b6113a3565b6040516106129190613a14565b60405180910390f35b34801561062757600080fd5b5061063061144a565b60405161063d9190613a14565b60405180910390f35b34801561065257600080fd5b5061066d60048036038101906106689190612d05565b6114d8565b60405161067a91906139f9565b60405180910390f35b34801561068f57600080fd5b506106aa60048036038101906106a59190612cdc565b61156c565b005b60007f780e9d63000000000000000000000000000000000000000000000000000000007bffffffffffffffffffffffffffffffffffffffffffffffffffffffff1916827bffffffffffffffffffffffffffffffffffffffffffffffffffffffff1916148061071f575061071e82611664565b5b9050919050565b60606000805461073590614072565b80601f016020809104026020016040519081016040528092919081815260200182805461076190614072565b80156107ae5780601f10610783576101008083540402835291602001916107ae565b820191906000526020600020905b81548152906001019060200180831161079157829003601f168201915b5050505050905090565b60006107c382611746565b610802576040517f08c379a00000000000000000000000000000000000000000000000000000000081526004016107f990613c74565b60405180910390fd5b6004600083815260200190815260200160002060009054906101000a900473ffffffffffffffffffffffffffffffffffffffff169050919050565b600061084882610f78565b90508073ffffffffffffffffffffffffffffffffffffffff168373ffffffffffffffffffffffffffffffffffffffff1614156108b9576040517f08c379a00000000000000000000000000000000000000000000000000000000081526004016108b090613cf4565b60405180910390fd5b8073ffffffffffffffffffffffffffffffffffffffff166108d86117b2565b73ffffffffffffffffffffffffffffffffffffffff1614806109075750610906816109016117b2565b6114d8565b5b610946576040517f08c379a000000000000000000000000000000000000000000000000000000000815260040161093d90613bb4565b60405180910390fd5b61095083836117ba565b505050565b600281565b6109626117b2565b73ffffffffffffffffffffffffffffffffffffffff1661098061126f565b73ffffffffffffffffffffffffffffffffffffffff16146109d6576040517f08c379a00000000000000000000000000000000000000000000000000000000081526004016109cd90613c94565b60405180910390fd5b60006109e2600b611873565b905060646109fa60028361188190919063ffffffff16565b10610a3a576040517f08c379a0000000000000000000000000000000000000000000000000000000008152600401610a3190613c14565b60405180910390fd5b60005b6002811015610a6157610a4e611897565b8080610a59906140a4565b915050610a3d565b5050565b6000600880549050905090565b610a83610a7d6117b2565b82611918565b610ac2576040517f08c379a0000000000000000000000000000000000000000000000000000000008152600401610ab990613d34565b60405180910390fd5b610acd8383836119f6565b505050565b6000610add8361102a565b8210610b1e576040517f08c379a0000000000000000000000000000000000000000000000000000000008152600401610b1590613a94565b60405180910390fd5b600660008473ffffffffffffffffffffffffffffffffffffffff1673ffffffffffffffffffffffffffffffffffffffff168152602001908152602001600020600083815260200190815260200160002054905092915050565b606481565b6000610b88600b611873565b90506064610b9f838361188190919063ffffffff16565b1115610be0576040517f08c379a0000000000000000000000000000000000000000000000000000000008152600401610bd790613a74565b60405180910390fd5b600082118015610bf1575060028211155b610c30576040517f08c379a0000000000000000000000000000000000000000000000000000000008152600401610c2790613b74565b60405180910390fd5b610c4a82662386f26fc10000611c5290919063ffffffff16565b341015610c8c576040517f08c379a0000000000000000000000000000000000000000000000000000000008152600401610c8390613b54565b60405180910390fd5b60005b82811015610cb257610c9f611897565b8080610caa906140a4565b915050610c8f565b505050565b610cbf6117b2565b73ffffffffffffffffffffffffffffffffffffffff16610cdd61126f565b73ffffffffffffffffffffffffffffffffffffffff1614610d33576040517f08c379a0000000000000000000000000000000000000000000000000000000008152600401610d2a90613c94565b60405180910390fd5b600047905060008111610d7b576040517f08c379a0000000000000000000000000000000000000000000000000000000008152600401610d7290613c54565b60405180910390fd5b60003373ffffffffffffffffffffffffffffffffffffffff1682604051610da190613932565b60006040518083038185875af1925050503d8060008114610dde576040519150601f19603f3d011682016040523d82523d6000602084013e610de3565b606091505b5050905080610e27576040517f08c379a0000000000000000000000000000000000000000000000000000000008152600401610e1e90613d14565b60405180910390fd5b5050565b610e4683838360405180602001604052806000815250611341565b505050565b6000610e55610a65565b8210610e96576040517f08c379a0000000000000000000000000000000000000000000000000000000008152600401610e8d90613d54565b60405180910390fd5b60088281548110610ed0577f4e487b7100000000000000000000000000000000000000000000000000000000600052603260045260246000fd5b90600052602060002001549050919050565b610eea6117b2565b73ffffffffffffffffffffffffffffffffffffffff16610f0861126f565b73ffffffffffffffffffffffffffffffffffffffff1614610f5e576040517f08c379a0000000000000000000000000000000000000000000000000000000008152600401610f5590613c94565b60405180910390fd5b80600c9080519060200190610f74929190612b00565b5050565b6000806002600084815260200190815260200160002060009054906101000a900473ffffffffffffffffffffffffffffffffffffffff169050600073ffffffffffffffffffffffffffffffffffffffff168173ffffffffffffffffffffffffffffffffffffffff161415611021576040517f08c379a000000000000000000000000000000000000000000000000000000000815260040161101890613bf4565b60405180910390fd5b80915050919050565b60008073ffffffffffffffffffffffffffffffffffffffff168273ffffffffffffffffffffffffffffffffffffffff16141561109b576040517f08c379a000000000000000000000000000000000000000000000000000000000815260040161109290613bd4565b60405180910390fd5b600360008373ffffffffffffffffffffffffffffffffffffffff1673ffffffffffffffffffffffffffffffffffffffff168152602001908152602001600020549050919050565b6110ea6117b2565b73ffffffffffffffffffffffffffffffffffffffff1661110861126f565b73ffffffffffffffffffffffffffffffffffffffff161461115e576040517f08c379a000000000000000000000000000000000000000000000000000000000815260040161115590613c94565b60405180910390fd5b6111686000611c68565b565b606060006111778361102a565b905060008167ffffffffffffffff8111156111bb577f4e487b7100000000000000000000000000000000000000000000000000000000600052604160045260246000fd5b6040519080825280602002602001820160405280156111e95781602001602082028036833780820191505090505b50905060005b82811015611259576112018582610ad2565b82828151811061123a577f4e487b7100000000000000000000000000000000000000000000000000000000600052603260045260246000fd5b6020026020010181815250508080611251906140a4565b9150506111ef565b508092505050919050565b662386f26fc1000081565b6000600a60009054906101000a900473ffffffffffffffffffffffffffffffffffffffff16905090565b6060600180546112a890614072565b80601f01602080910402602001604051908101604052809291908181526020018280546112d490614072565b80156113215780601f106112f657610100808354040283529160200191611321565b820191906000526020600020905b81548152906001019060200180831161130457829003601f168201915b5050505050905090565b61133d6113366117b2565b8383611d2e565b5050565b61135261134c6117b2565b83611918565b611391576040517f08c379a000000000000000000000000000000000000000000000000000000000815260040161138890613d34565b60405180910390fd5b61139d84848484611e9b565b50505050565b60606113ae82611746565b6113ed576040517f08c379a00000000000000000000000000000000000000000000000000000000081526004016113e490613cd4565b60405180910390fd5b60006113f7611ef7565b905060008151116114175760405180602001604052806000815250611442565b8061142184611f89565b60405160200161143292919061390e565b6040516020818303038152906040525b915050919050565b600c805461145790614072565b80601f016020809104026020016040519081016040528092919081815260200182805461148390614072565b80156114d05780601f106114a5576101008083540402835291602001916114d0565b820191906000526020600020905b8154815290600101906020018083116114b357829003601f168201915b505050505081565b6000600560008473ffffffffffffffffffffffffffffffffffffffff1673ffffffffffffffffffffffffffffffffffffffff16815260200190815260200160002060008373ffffffffffffffffffffffffffffffffffffffff1673ffffffffffffffffffffffffffffffffffffffff16815260200190815260200160002060009054906101000a900460ff16905092915050565b6115746117b2565b73ffffffffffffffffffffffffffffffffffffffff1661159261126f565b73ffffffffffffffffffffffffffffffffffffffff16146115e8576040517f08c379a00000000000000000000000000000000000000000000000000000000081526004016115df90613c94565b60405180910390fd5b600073ffffffffffffffffffffffffffffffffffffffff168173ffffffffffffffffffffffffffffffffffffffff161415611658576040517f08c379a000000000000000000000000000000000000000000000000000000000815260040161164f90613ad4565b60405180910390fd5b61166181611c68565b50565b60007f80ac58cd000000000000000000000000000000000000000000000000000000007bffffffffffffffffffffffffffffffffffffffffffffffffffffffff1916827bffffffffffffffffffffffffffffffffffffffffffffffffffffffff1916148061172f57507f5b5e139f000000000000000000000000000000000000000000000000000000007bffffffffffffffffffffffffffffffffffffffffffffffffffffffff1916827bffffffffffffffffffffffffffffffffffffffffffffffffffffffff1916145b8061173f575061173e82612136565b5b9050919050565b60008073ffffffffffffffffffffffffffffffffffffffff166002600084815260200190815260200160002060009054906101000a900473ffffffffffffffffffffffffffffffffffffffff1673ffffffffffffffffffffffffffffffffffffffff1614159050919050565b600033905090565b816004600083815260200190815260200160002060006101000a81548173ffffffffffffffffffffffffffffffffffffffff021916908373ffffffffffffffffffffffffffffffffffffffff160217905550808273ffffffffffffffffffffffffffffffffffffffff1661182d83610f78565b73ffffffffffffffffffffffffffffffffffffffff167f8c5be1e5ebec7d5bd14f71427d1e84f3dd0314c0f7b2291e5b200ac8c7c3b92560405160405180910390a45050565b600081600001549050919050565b6000818361188f9190613ea7565b905092915050565b60006118a3600b611873565b90506118af33826121a0565b6118b9600b6121be565b6118dc6040518060600160405280602581526020016142486025913982336121d4565b7f1c05098ed1ff38e6238d2b1b04b2c7977d4c94ce651bda6473f9dba8dbf01da0338260405161190d9291906139ae565b60405180910390a150565b600061192382611746565b611962576040517f08c379a000000000000000000000000000000000000000000000000000000000815260040161195990613b94565b60405180910390fd5b600061196d83610f78565b90508073ffffffffffffffffffffffffffffffffffffffff168473ffffffffffffffffffffffffffffffffffffffff1614806119dc57508373ffffffffffffffffffffffffffffffffffffffff166119c4846107b8565b73ffffffffffffffffffffffffffffffffffffffff16145b806119ed57506119ec81856114d8565b5b91505092915050565b8273ffffffffffffffffffffffffffffffffffffffff16611a1682610f78565b73ffffffffffffffffffffffffffffffffffffffff1614611a6c576040517f08c379a0000000000000000000000000000000000000000000000000000000008152600401611a6390613cb4565b60405180910390fd5b600073ffffffffffffffffffffffffffffffffffffffff168273ffffffffffffffffffffffffffffffffffffffff161415611adc576040517f08c379a0000000000000000000000000000000000000000000000000000000008152600401611ad390613b14565b60405180910390fd5b611ae7838383612273565b611af26000826117ba565b6001600360008573ffffffffffffffffffffffffffffffffffffffff1673ffffffffffffffffffffffffffffffffffffffff1681526020019081526020016000206000828254611b429190613f88565b925050819055506001600360008473ffffffffffffffffffffffffffffffffffffffff1673ffffffffffffffffffffffffffffffffffffffff1681526020019081526020016000206000828254611b999190613ea7565b92505081905550816002600083815260200190815260200160002060006101000a81548173ffffffffffffffffffffffffffffffffffffffff021916908373ffffffffffffffffffffffffffffffffffffffff160217905550808273ffffffffffffffffffffffffffffffffffffffff168473ffffffffffffffffffffffffffffffffffffffff167fddf252ad1be2c89b69c2b068fc378daa952ba7f163c4a11628f55a4df523b3ef60405160405180910390a4505050565b60008183611c609190613f2e565b905092915050565b6000600a60009054906101000a900473ffffffffffffffffffffffffffffffffffffffff16905081600a60006101000a81548173ffffffffffffffffffffffffffffffffffffffff021916908373ffffffffffffffffffffffffffffffffffffffff1602179055508173ffffffffffffffffffffffffffffffffffffffff168173ffffffffffffffffffffffffffffffffffffffff167f8be0079c531659141344cd1fd0a4f28419497f9722a3daafe3b4186f6b6457e060405160405180910390a35050565b8173ffffffffffffffffffffffffffffffffffffffff168373ffffffffffffffffffffffffffffffffffffffff161415611d9d576040517f08c379a0000000000000000000000000000000000000000000000000000000008152600401611d9490613b34565b60405180910390fd5b80600560008573ffffffffffffffffffffffffffffffffffffffff1673ffffffffffffffffffffffffffffffffffffffff16815260200190815260200160002060008473ffffffffffffffffffffffffffffffffffffffff1673ffffffffffffffffffffffffffffffffffffffff16815260200190815260200160002060006101000a81548160ff0219169083151502179055508173ffffffffffffffffffffffffffffffffffffffff168373ffffffffffffffffffffffffffffffffffffffff167f17307eab39ab6107e8899845ad3d59bd9653f200f220920489ca2b5937696c3183604051611e8e91906139f9565b60405180910390a3505050565b611ea68484846119f6565b611eb284848484612387565b611ef1576040517f08c379a0000000000000000000000000000000000000000000000000000000008152600401611ee890613ab4565b60405180910390fd5b50505050565b6060600c8054611f0690614072565b80601f0160208091040260200160405190810160405280929190818152602001828054611f3290614072565b8015611f7f5780601f10611f5457610100808354040283529160200191611f7f565b820191906000526020600020905b815481529060010190602001808311611f6257829003601f168201915b5050505050905090565b60606000821415611fd1576040518060400160405280600181526020017f30000000000000000000000000000000000000000000000000000000000000008152509050612131565b600082905060005b60008214612003578080611fec906140a4565b915050600a82611ffc9190613efd565b9150611fd9565b60008167ffffffffffffffff811115612045577f4e487b7100000000000000000000000000000000000000000000000000000000600052604160045260246000fd5b6040519080825280601f01601f1916602001820160405280156120775781602001600182028036833780820191505090505b5090505b6000851461212a576001826120909190613f88565b9150600a8561209f91906140ed565b60306120ab9190613ea7565b60f81b8183815181106120e7577f4e487b7100000000000000000000000000000000000000000000000000000000600052603260045260246000fd5b60200101907effffffffffffffffffffffffffffffffffffffffffffffffffffffffffffff1916908160001a905350600a856121239190613efd565b945061207b565b8093505050505b919050565b60007f01ffc9a7000000000000000000000000000000000000000000000000000000007bffffffffffffffffffffffffffffffffffffffffffffffffffffffff1916827bffffffffffffffffffffffffffffffffffffffffffffffffffffffff1916149050919050565b6121ba82826040518060200160405280600081525061251e565b5050565b6001816000016000828254019250508190555050565b61226e8383836040516024016121ec93929190613a36565b6040516020818303038152906040527fe3849f79000000000000000000000000000000000000000000000000000000007bffffffffffffffffffffffffffffffffffffffffffffffffffffffff19166020820180517bffffffffffffffffffffffffffffffffffffffffffffffffffffffff8381831617835250505050612579565b505050565b61227e8383836125a2565b600073ffffffffffffffffffffffffffffffffffffffff168373ffffffffffffffffffffffffffffffffffffffff1614156122c1576122bc816125a7565b612300565b8173ffffffffffffffffffffffffffffffffffffffff168373ffffffffffffffffffffffffffffffffffffffff16146122ff576122fe83826125f0565b5b5b600073ffffffffffffffffffffffffffffffffffffffff168273ffffffffffffffffffffffffffffffffffffffff1614156123435761233e8161275d565b612382565b8273ffffffffffffffffffffffffffffffffffffffff168273ffffffffffffffffffffffffffffffffffffffff16146123815761238082826128a0565b5b5b505050565b60006123a88473ffffffffffffffffffffffffffffffffffffffff1661291f565b15612511578373ffffffffffffffffffffffffffffffffffffffff1663150b7a026123d16117b2565b8786866040518563ffffffff1660e01b81526004016123f39493929190613962565b602060405180830381600087803b15801561240d57600080fd5b505af192505050801561243e57506040513d601f19601f8201168201806040525081019061243b9190612eac565b60015b6124c1573d806000811461246e576040519150601f19603f3d011682016040523d82523d6000602084013e612473565b606091505b506000815114156124b9576040517f08c379a00000000000000000000000000000000000000000000000000000000081526004016124b090613ab4565b60405180910390fd5b805181602001fd5b63150b7a0260e01b7bffffffffffffffffffffffffffffffffffffffffffffffffffffffff1916817bffffffffffffffffffffffffffffffffffffffffffffffffffffffff191614915050612516565b600190505b949350505050565b6125288383612932565b6125356000848484612387565b612574576040517f08c379a000000000000000000000000000000000000000000000000000000000815260040161256b90613ab4565b60405180910390fd5b505050565b60008151905060006a636f6e736f6c652e6c6f679050602083016000808483855afa5050505050565b505050565b6008805490506009600083815260200190815260200160002081905550600881908060018154018082558091505060019003906000526020600020016000909190919091505550565b600060016125fd8461102a565b6126079190613f88565b90506000600760008481526020019081526020016000205490508181146126ec576000600660008673ffffffffffffffffffffffffffffffffffffffff1673ffffffffffffffffffffffffffffffffffffffff168152602001908152602001600020600084815260200190815260200160002054905080600660008773ffffffffffffffffffffffffffffffffffffffff1673ffffffffffffffffffffffffffffffffffffffff168152602001908152602001600020600084815260200190815260200160002081905550816007600083815260200190815260200160002081905550505b6007600084815260200190815260200160002060009055600660008573ffffffffffffffffffffffffffffffffffffffff1673ffffffffffffffffffffffffffffffffffffffff16815260200190815260200160002060008381526020019081526020016000206000905550505050565b600060016008805490506127719190613f88565b90506000600960008481526020019081526020016000205490506000600883815481106127c7577f4e487b7100000000000000000000000000000000000000000000000000000000600052603260045260246000fd5b90600052602060002001549050806008838154811061280f577f4e487b7100000000000000000000000000000000000000000000000000000000600052603260045260246000fd5b906000526020600020018190555081600960008381526020019081526020016000208190555060096000858152602001908152602001600020600090556008805480612884577f4e487b7100000000000000000000000000000000000000000000000000000000600052603160045260246000fd5b6001900381819060005260206000200160009055905550505050565b60006128ab8361102a565b905081600660008573ffffffffffffffffffffffffffffffffffffffff1673ffffffffffffffffffffffffffffffffffffffff168152602001908152602001600020600083815260200190815260200160002081905550806007600084815260200190815260200160002081905550505050565b600080823b905060008111915050919050565b600073ffffffffffffffffffffffffffffffffffffffff168273ffffffffffffffffffffffffffffffffffffffff1614156129a2576040517f08c379a000000000000000000000000000000000000000000000000000000000815260040161299990613c34565b60405180910390fd5b6129ab81611746565b156129eb576040517f08c379a00000000000000000000000000000000000000000000000000000000081526004016129e290613af4565b60405180910390fd5b6129f760008383612273565b6001600360008473ffffffffffffffffffffffffffffffffffffffff1673ffffffffffffffffffffffffffffffffffffffff1681526020019081526020016000206000828254612a479190613ea7565b92505081905550816002600083815260200190815260200160002060006101000a81548173ffffffffffffffffffffffffffffffffffffffff021916908373ffffffffffffffffffffffffffffffffffffffff160217905550808273ffffffffffffffffffffffffffffffffffffffff16600073ffffffffffffffffffffffffffffffffffffffff167fddf252ad1be2c89b69c2b068fc378daa952ba7f163c4a11628f55a4df523b3ef60405160405180910390a45050565b828054612b0c90614072565b90600052602060002090601f016020900481019282612b2e5760008555612b75565b82601f10612b4757805160ff1916838001178555612b75565b82800160010185558215612b75579182015b82811115612b74578251825591602001919060010190612b59565b5b509050612b829190612b86565b5090565b5b80821115612b9f576000816000905550600101612b87565b5090565b6000612bb6612bb184613dc0565b613d8f565b905082815260208101848484011115612bce57600080fd5b612bd9848285614030565b509392505050565b6000612bf4612bef84613df0565b613d8f565b905082815260208101848484011115612c0c57600080fd5b612c17848285614030565b509392505050565b600081359050612c2e816141eb565b92915050565b600081359050612c4381614202565b92915050565b600081359050612c5881614219565b92915050565b600081519050612c6d81614219565b92915050565b600082601f830112612c8457600080fd5b8135612c94848260208601612ba3565b91505092915050565b600082601f830112612cae57600080fd5b8135612cbe848260208601612be1565b91505092915050565b600081359050612cd681614230565b92915050565b600060208284031215612cee57600080fd5b6000612cfc84828501612c1f565b91505092915050565b60008060408385031215612d1857600080fd5b6000612d2685828601612c1f565b9250506020612d3785828601612c1f565b9150509250929050565b600080600060608486031215612d5657600080fd5b6000612d6486828701612c1f565b9350506020612d7586828701612c1f565b9250506040612d8686828701612cc7565b9150509250925092565b60008060008060808587031215612da657600080fd5b6000612db487828801612c1f565b9450506020612dc587828801612c1f565b9350506040612dd687828801612cc7565b925050606085013567ffffffffffffffff811115612df357600080fd5b612dff87828801612c73565b91505092959194509250565b60008060408385031215612e1e57600080fd5b6000612e2c85828601612c1f565b9250506020612e3d85828601612c34565b9150509250929050565b60008060408385031215612e5a57600080fd5b6000612e6885828601612c1f565b9250506020612e7985828601612cc7565b9150509250929050565b600060208284031215612e9557600080fd5b6000612ea384828501612c49565b91505092915050565b600060208284031215612ebe57600080fd5b6000612ecc84828501612c5e565b91505092915050565b600060208284031215612ee757600080fd5b600082013567ffffffffffffffff811115612f0157600080fd5b612f0d84828501612c9d565b91505092915050565b600060208284031215612f2857600080fd5b6000612f3684828501612cc7565b91505092915050565b6000612f4b83836138f0565b60208301905092915050565b612f6081613fbc565b82525050565b6000612f7182613e30565b612f7b8185613e5e565b9350612f8683613e20565b8060005b83811015612fb7578151612f9e8882612f3f565b9750612fa983613e51565b925050600181019050612f8a565b5085935050505092915050565b612fcd81613fce565b82525050565b6000612fde82613e3b565b612fe88185613e6f565b9350612ff881856020860161403f565b613001816141da565b840191505092915050565b600061301782613e46565b6130218185613e8b565b935061303181856020860161403f565b61303a816141da565b840191505092915050565b600061305082613e46565b61305a8185613e9c565b935061306a81856020860161403f565b80840191505092915050565b6000613083601083613e8b565b91507f4e6f7420656e6f756768204e46547321000000000000000000000000000000006000830152602082019050919050565b60006130c3602b83613e8b565b91507f455243373231456e756d657261626c653a206f776e657220696e646578206f7560008301527f74206f6620626f756e64730000000000000000000000000000000000000000006020830152604082019050919050565b6000613129603283613e8b565b91507f4552433732313a207472616e7366657220746f206e6f6e20455243373231526560008301527f63656976657220696d706c656d656e74657200000000000000000000000000006020830152604082019050919050565b600061318f602683613e8b565b91507f4f776e61626c653a206e6577206f776e657220697320746865207a65726f206160008301527f64647265737300000000000000000000000000000000000000000000000000006020830152604082019050919050565b60006131f5601c83613e8b565b91507f4552433732313a20746f6b656e20616c7265616479206d696e746564000000006000830152602082019050919050565b6000613235602483613e8b565b91507f4552433732313a207472616e7366657220746f20746865207a65726f2061646460008301527f72657373000000000000000000000000000000000000000000000000000000006020830152604082019050919050565b600061329b601983613e8b565b91507f4552433732313a20617070726f766520746f2063616c6c6572000000000000006000830152602082019050919050565b60006132db602283613e8b565b91507f4e6f7420656e6f75676820657468657220746f207075726368617365204e465460008301527f732e0000000000000000000000000000000000000000000000000000000000006020830152604082019050919050565b6000613341602583613e8b565b91507f43616e6e6f74206d696e7420737065636966696564206e756d626572206f662060008301527f4e4654732e0000000000000000000000000000000000000000000000000000006020830152604082019050919050565b60006133a7602c83613e8b565b91507f4552433732313a206f70657261746f7220717565727920666f72206e6f6e657860008301527f697374656e7420746f6b656e00000000000000000000000000000000000000006020830152604082019050919050565b600061340d603883613e8b565b91507f4552433732313a20617070726f76652063616c6c6572206973206e6f74206f7760008301527f6e6572206e6f7220617070726f76656420666f7220616c6c00000000000000006020830152604082019050919050565b6000613473602a83613e8b565b91507f4552433732313a2062616c616e636520717565727920666f7220746865207a6560008301527f726f2061646472657373000000000000000000000000000000000000000000006020830152604082019050919050565b60006134d9602983613e8b565b91507f4552433732313a206f776e657220717565727920666f72206e6f6e657869737460008301527f656e7420746f6b656e00000000000000000000000000000000000000000000006020830152604082019050919050565b600061353f600f83613e8b565b91507f4e6f7420656e6f756768204e46547300000000000000000000000000000000006000830152602082019050919050565b600061357f602083613e8b565b91507f4552433732313a206d696e7420746f20746865207a65726f20616464726573736000830152602082019050919050565b60006135bf601983613e8b565b91507f4e6f206574686572206c65667420746f207769746864726177000000000000006000830152602082019050919050565b60006135ff602c83613e8b565b91507f4552433732313a20617070726f76656420717565727920666f72206e6f6e657860008301527f697374656e7420746f6b656e00000000000000000000000000000000000000006020830152604082019050919050565b6000613665602083613e8b565b91507f4f776e61626c653a2063616c6c6572206973206e6f7420746865206f776e65726000830152602082019050919050565b60006136a5602983613e8b565b91507f4552433732313a207472616e73666572206f6620746f6b656e2074686174206960008301527f73206e6f74206f776e00000000000000000000000000000000000000000000006020830152604082019050919050565b600061370b602f83613e8b565b91507f4552433732314d657461646174613a2055524920717565727920666f72206e6f60008301527f6e6578697374656e7420746f6b656e00000000000000000000000000000000006020830152604082019050919050565b6000613771602183613e8b565b91507f4552433732313a20617070726f76616c20746f2063757272656e74206f776e6560008301527f72000000000000000000000000000000000000000000000000000000000000006020830152604082019050919050565b60006137d7600083613e80565b9150600082019050919050565b60006137f1601083613e8b565b91507f5472616e73666572206661696c65642e000000000000000000000000000000006000830152602082019050919050565b6000613831603183613e8b565b91507f4552433732313a207472616e736665722063616c6c6572206973206e6f74206f60008301527f776e6572206e6f7220617070726f7665640000000000000000000000000000006020830152604082019050919050565b6000613897602c83613e8b565b91507f455243373231456e756d657261626c653a20676c6f62616c20696e646578206f60008301527f7574206f6620626f756e647300000000000000000000000000000000000000006020830152604082019050919050565b6138f981614026565b82525050565b61390881614026565b82525050565b600061391a8285613045565b91506139268284613045565b91508190509392505050565b600061393d826137ca565b9150819050919050565b600060208201905061395c6000830184612f57565b92915050565b60006080820190506139776000830187612f57565b6139846020830186612f57565b61399160408301856138ff565b81810360608301526139a38184612fd3565b905095945050505050565b60006040820190506139c36000830185612f57565b6139d060208301846138ff565b9392505050565b600060208201905081810360008301526139f18184612f66565b905092915050565b6000602082019050613a0e6000830184612fc4565b92915050565b60006020820190508181036000830152613a2e818461300c565b905092915050565b60006060820190508181036000830152613a50818661300c565b9050613a5f60208301856138ff565b613a6c6040830184612f57565b949350505050565b60006020820190508181036000830152613a8d81613076565b9050919050565b60006020820190508181036000830152613aad816130b6565b9050919050565b60006020820190508181036000830152613acd8161311c565b9050919050565b60006020820190508181036000830152613aed81613182565b9050919050565b60006020820190508181036000830152613b0d816131e8565b9050919050565b60006020820190508181036000830152613b2d81613228565b9050919050565b60006020820190508181036000830152613b4d8161328e565b9050919050565b60006020820190508181036000830152613b6d816132ce565b9050919050565b60006020820190508181036000830152613b8d81613334565b9050919050565b60006020820190508181036000830152613bad8161339a565b9050919050565b60006020820190508181036000830152613bcd81613400565b9050919050565b60006020820190508181036000830152613bed81613466565b9050919050565b60006020820190508181036000830152613c0d816134cc565b9050919050565b60006020820190508181036000830152613c2d81613532565b9050919050565b60006020820190508181036000830152613c4d81613572565b9050919050565b60006020820190508181036000830152613c6d816135b2565b9050919050565b60006020820190508181036000830152613c8d816135f2565b9050919050565b60006020820190508181036000830152613cad81613658565b9050919050565b60006020820190508181036000830152613ccd81613698565b9050919050565b60006020820190508181036000830152613ced816136fe565b9050919050565b60006020820190508181036000830152613d0d81613764565b9050919050565b60006020820190508181036000830152613d2d816137e4565b9050919050565b60006020820190508181036000830152613d4d81613824565b9050919050565b60006020820190508181036000830152613d6d8161388a565b9050919050565b6000602082019050613d8960008301846138ff565b92915050565b6000604051905081810181811067ffffffffffffffff82111715613db657613db56141ab565b5b8060405250919050565b600067ffffffffffffffff821115613ddb57613dda6141ab565b5b601f19601f8301169050602081019050919050565b600067ffffffffffffffff821115613e0b57613e0a6141ab565b5b601f19601f8301169050602081019050919050565b6000819050602082019050919050565b600081519050919050565b600081519050919050565b600081519050919050565b6000602082019050919050565b600082825260208201905092915050565b600082825260208201905092915050565b600081905092915050565b600082825260208201905092915050565b600081905092915050565b6000613eb282614026565b9150613ebd83614026565b9250827fffffffffffffffffffffffffffffffffffffffffffffffffffffffffffffffff03821115613ef257613ef161411e565b5b828201905092915050565b6000613f0882614026565b9150613f1383614026565b925082613f2357613f2261414d565b5b828204905092915050565b6000613f3982614026565b9150613f4483614026565b9250817fffffffffffffffffffffffffffffffffffffffffffffffffffffffffffffffff0483118215151615613f7d57613f7c61411e565b5b828202905092915050565b6000613f9382614026565b9150613f9e83614026565b925082821015613fb157613fb061411e565b5b828203905092915050565b6000613fc782614006565b9050919050565b60008115159050919050565b60007fffffffff0000000000000000000000000000000000000000000000000000000082169050919050565b600073ffffffffffffffffffffffffffffffffffffffff82169050919050565b6000819050919050565b82818337600083830152505050565b60005b8381101561405d578082015181840152602081019050614042565b8381111561406c576000848401525b50505050565b6000600282049050600182168061408a57607f821691505b6020821081141561409e5761409d61417c565b5b50919050565b60006140af82614026565b91507fffffffffffffffffffffffffffffffffffffffffffffffffffffffffffffffff8214156140e2576140e161411e565b5b600182019050919050565b60006140f882614026565b915061410383614026565b9250826141135761411261414d565b5b828206905092915050565b7f4e487b7100000000000000000000000000000000000000000000000000000000600052601160045260246000fd5b7f4e487b7100000000000000000000000000000000000000000000000000000000600052601260045260246000fd5b7f4e487b7100000000000000000000000000000000000000000000000000000000600052602260045260246000fd5b7f4e487b7100000000000000000000000000000000000000000000000000000000600052604160045260246000fd5b6000601f19601f8301169050919050565b6141f481613fbc565b81146141ff57600080fd5b50565b61420b81613fce565b811461421657600080fd5b50565b61422281613fda565b811461422d57600080fd5b50565b61423981614026565b811461424457600080fd5b5056fe416e204e465420772f20494420257320686173206265656e206d696e74656420746f202573a264697066735822122010df259393e6e185d76f62fa3c856eb259e4a5405de3871f77b567e5657f298064736f6c63430008000033",
  "linkReferences": {},
  "deployedLinkReferences": {}
}